:03000000020728CC
:0C072800787FE4F6D8FD75812E02076F83
:0A0A880053543A2000000000000063
:1009C100C181041200000000010B00C102C1000638
:1009D1000C54454D500000041600000000010800B1
:0409E1000209000007
:03000B000207B435
:0F07B400C0E0C0D075D000C004C005C006C007AB
:1007C300758CDC758A00300119AF15AE14AD13AC0E
:1007D30012EF2401F515E43EF514E43DF513E43C72
:1007E300F5120508C3E508940A74809480400675E1
:1007F3000800750B0130021F050AE50A700205099E
:10080300C39405E50994004018750900750A00B200
:1008130000A2009295800AD295750900750A00C25C
:0108230000D4
:0D082400D007D006D005D004D0D0D0E032EF
:0409E6007F057E000B
:1009EA00E4FDFCC3ED9FEC9E5015E4FBFA0BBB0043
:0F09FA00010AEB64784A70F50DBD00010C80E432
:010A090022CA
:0B0A7D00EF1FAC0670011E4C70F6224B
:100A6B00759850438920758780758DF3758BF3D2FC
:020A7B008E22C9
:100A58005389F0438901758CDCE4F58AD2A9D2AFB9
:030A6800D28C220B
:040539008E238F245A
:10053D0078267C007D007BFF7A0A798D7E007F0511
:10054D0012039B7F80120A92C3E52364809480502E
:10055D00047F2D80027F2B120A9CC3E523648094B7
:10056D00805011E524F4FFE523F4FEEF2401FFE4B0
:10057D003EFE8004AE23AF248E238F24AC23AD2406
:10058D00EC120211E4FBFA7980783D1201068F2EF0
:10059D008E2D8D2C8C2BE4FFFE7DC87C42AB2EAABC
:1005AD002DA92CA82B120106E4FBFAF9783F1200B5
:1005BD001512024AAB07AA067C277D101204168F6E
:1005CD00267C277D10AF03AE021204167E037FE852
:1005DD00CFCDCFCECCCE1204168F277C037DE8AFC6
:1005ED0003AE021204167E007F64CFCDCFCECCCEEB
:1005FD001204168F287C007D64AF03AE0212041620
:10060D007E007F0ACFCDCFCECCCE1204168F29AE71
:10061D0002AF037C007D0A1204168D2A7F82120A16
:10062D0092E4F525C3E525940374809480501074ED
:10063D00262525F8E62430FF120A9C052580E57F46
:10064D002E120A9CE5292430FF120A9CE52A24303B
:10065D00FF120A9CE4F525C3E52594067480948069
:10066D00500E740C2525F8E6FF120A9C052580E72F
:01067D00225A
:10067E00AF15AE14AD13AC128F268E258D248C23A0
:10068E00E47B64FAF9F8120488AB07AA067C007DB5
:10069E003C1203C18F27AE02AF037C007D3C1203D8
:1006AE00C18D28E47B64FAF9F8AF26AE25AD24ACF3
:1006BE0023120488AF038F297FC0120A927F8812FB
:1006CE000A9CE52775F00A842430FF120A9CE52760
:1006DE0075F00A84E5F02430FF120A9C7F3A120A64
:1006EE009CE52875F00A842430FF120A9CE52875D3
:1006FE00F00A84E5F02430FF120A9C7F2E120A9C29
:10070E00E52975F00A842430FF120A9CE52975F05C
:0A071E000A84E5F02430FF020A9C73
:10095F0020B00B1209E620B005C20130B0FD20B166
:10096F000B1209E620B105D20130B1FD20B21712EA
:10097F0009E620B211E4F515F514F513F512C201CD
:07098F0012067E30B2FD22CA
:10083100120A6B120A58120A28D2957F88120A925C
:050841007F43120A9C38
:100846007F0A7E00120A7D12095F120A418E218FED
:1008560022120539D3E52294E0E521648094814093
:1008660004D2028002C202E50B60D5E4F50BAF1993
:10087600AE18AD17AC16AB15AA14A913A812C3125D
:10088600052860BCAF15AE14AD13AC128F198E18C7
:070896008D178C1612067E7F
:02089D0080A732
:1008E100C2A58F807F017E001208F2D2A77F017E10
:0108F1000006
:1008F200D3EF9400EE940040257DC7EDD3940074AD
:1009020080948040127C01ECD394007480948040E7
:0E091200031C80F31D80E4EF1F70D51E80D201
:0109200022B4
:0A0A9200C2A7C2A61208E1C2A72203
:0A0A9C00C2A7D2A61208E1C2A722E9
:100A28007F38120A927F0C120A927F06120A927F6E
:090A380001120A927F80020A9269
:100A0A00D3EF9400EE940040147D6E7C00ED1D70CF
:0D0A1A00011CED4C70F7EF1F70E61E80E32D
:010A270022AC
:10099600C2B77F467E00EF1FAC0670011E4C70F694
:1009A600D2B7FEFF30B7110FBF00010ED3EF948808
:0A09B600EE941340EF7F00227F0152
:0109C0002214
:0C089F001209967F017E00120A0A7FCC2D
:1008AB00E4FBFAC2B70525E52570020524EF139288
:1008BB00B7752400752506E5251525AC24700215A2
:1008CB00244C70F3D2B7EFC313FF0BBB00010AEB41
:0508DB0064084A70CE24
:0108E00022F5
:100921007D087C00C2B70FBF0000D2B70FBF000027
:100931000FBF0000A2B7E433C43333335480FBE963
:10094100C3134BF97E007F04EF1FAA0670011E4AF4
:0D09510070F6ED1D70011CED4C70C9AF017A
:01095E002276
:0800030012089F7F440208ABC4
:080AA60012089F7FBE0208AB9D
:100A4100E4FFFE120003120AA61209218F231209E4
:060A510021EFFEE523FF8A
:010A5700227C
:10000E000202B6E86480F8E933E83360110460F068
:10001E00ED33EC337009E8FCE9FDEAFEEBFF220458
:10002E0060DED3EB9FEA9EE99DE8C2E78CF0C2F753
:10003E0095F0400CE8CCF8E9CDF9EACEFAEBCFFB1F
:10004E0012028185D0F05804700320D5B3E80470F5
:10005E00075002B2D50202C092D5EC0460F7E4CC90
:10006E00C0E0C398F8603B94186008400DD0E0FBE8
:10007E00020298E4FBFAC9FC8028E830E406E4C9E1
:10008E00FBE4CAFCE830E305E4C9CACBFCE854073C
:10009E006010F8C3E913F9EA13FAEB13FBEC13FC47
:1000AE00D8F130F52FC3E49CFCEF9BFFEE9AFEEDEA
:1000BE0099FDD0E0FBEF4E4D4C701222DB03020295
:1000CE00BDEC2CFCEF33FFEE33FEED33FDED30E7F0
:1000DE00EB020298EF2BFFEE3AFEED39FDD0E0FB7E
:1000EE0050130BBB00030202C0ED13FDEE13FEEF27
:0800FE0013FFEC13FC02029851
:10010600EC4D6011E8497017ED33EC3304600DE4F3
:10011600FCFFFEFD22E933E8330470F80202B61252
:10012600028158046009E4CC248150062850090253
:1001360002C02840030202BDC0E0EB4A7044B98009
:1001460006D0E0FB0202ACEF4E701CBD8008EBFF50
:10015600EAFEE9FD80EBE98DF0A4FEE5F00201EF91
:10016600E9CDF9EAFEEBFFEF89F0A4FCE5F0CE89D4
:10017600F0A42EFFE435F0CD89F0A42DFEE435F091
:100186008067EF4E7005BD80D780C3EF8BF0A4ACBF
:10019600F0EE8BF0A42CFCE435F0F8EF8AF0A42CFA
:1001A600E5F038FCE433CB8DF0A42CFCE5F03BF80D
:1001B600EE8AF0A42CFCE5F038F8E433CF89F0A4FD
:1001C6002CFCE5F038CF3400CE89F0A42FFFE5F003
:1001D6003EFEE433C98DF0A42EFEE5F039CD8AF05B
:1001E600A42FFFE5F03EFEE43DFD33D0E0FB5007D3
:1001F6000BBB000F0202C0EC2CFCEF33FFEE33FE0C
:06020600ED33FD02029839
:10020C0075F020800E75F010800575F0087D007E6D
:10021C00007F003392D530D50312051AEC33401011
:10022C00EF33FFEE33FEED33FDEC33FCD5F0ED2276
:0E023C00E5F0247EA2D513CC92E7CDCEFF22B2
:10024A00EDD2E7CD33EC3392D524814006E4FFFEAC
:10025A00FDFC22FCE4CFCECDCC24E0501174FF800B
:10026A00EDC3CC13CCCD13CDCE13CECF13CF0470A8
:07027A00F030D5DE02051A89
:10028100E9D2E7C933E833F892D5EDD2E7CD33ECC3
:0702910033FC5002B2D5223C
:10029800EC30E7100FBF000C0EBE00080DBD0004C7
:1002A8000BEB6014A2D5EB13FCED92E7FD2274FF73
:1002B800FCFDFEFF22E480F8A2D574FF13FC7D80CC
:0302C800E480EFE0
:10073400020831E493A3F8E493A34003F68001F2A2
:1007440008DFF48029E493A3F85407240CC8C333C6
:10075400C4540F4420C8834004F456800146F6DF95
:10076400E4800B01020408102040809009C1E47E5B
:10077400019360BCA3FF543F30E509541FFEE4938A
:10078400A360010ECF54C025E060A840B8E493A351
:10079400FAE493A3F8E493A3C8C582C8CAC583CA7C
:1007A400F0A3C8C582C8CAC583CADFE9DEE780BE34
:0109E5000011
:1002CB00E709F608DFFA8046E709F208DFFA803E15
:1002DB0088828C83E709F0A3DFFA8032E309F60802
:1002EB00DFFA8078E309F208DFFA807088828C836A
:1002FB00E309F0A3DFFA806489828A83E0A3F6081E
:10030B00DFFA805889828A83E0A3F208DFFA804CF7
:10031B0080D280FA80C680D4806980F280338010CE
:10032B0080A680EA809A80A880DA80E280CA803337
:10033B0089828A83ECFAE493A3C8C582C8CCC583AF
:10034B00CCF0A3C8C582C8CCC583CCDFE9DEE7807F
:10035B000D89828A83E493A3F608DFF9ECFAA9F0FE
:10036B00EDFB2289828A83ECFAE0A3C8C582C8CC54
:10037B00C583CCF0A3C8C582C8CCC583CCDFEADE6D
:10038B00E880DB89828A83E493A3F208DFF980CCCF
:10039B0088F0EF60010E4E60C388F0ED2402B404C8
:1003AB000050B9F582EB2402B4040050AF2323456F
:0603BB00822390031B7376
:1003C100BC000BBE0029EF8DF084FFADF022E4CC20
:1003D100F875F008EF2FFFEE33FEEC33FCEE9DECE9
:1003E100984005FCEE9DFE0FD5F0E9E4CEFD22ED2F
:1003F100F8F5F0EE8420D21CFEADF075F008EF2F79
:10040100FFED33FD4007985006D5F0F222C398FD69
:050411000FD5F0EA2206
:10041600C2D5EC30E709B2D5E4C39DFDE49CFCEE01
:1004260030E715B2D5E4C39FFFE49EFE1203C1C3B5
:10043600E49DFDE49CFC80031203C130D507C3E4B0
:060446009FFFE49EFE2270
:10044C0075F008758200EF2FFFEE33FECD33CDCC67
:10045C0033CCC58233C5829BED9AEC99E5829840EA
:10046C000CF582EE9BFEED9AFDEC99FC0FD5F0D6C7
:10047C00E4CEFBE4CDFAE4CCF9A88222B800C1B9F1
:10048C000059BA002DEC8BF084CFCECDFCE5F0CB2F
:10049C00F97818EF2FFFEE33FEED33FDEC33FCEB68
:1004AC0033FB10D703994004EB99FB0FD8E5E4F923
:1004BC00FA227818EF2FFFEE33FEED33FDEC33FC10
:1004CC00C933C910D7059BE99A4007EC9BFCE99A04
:1004DC00F90FD8E0E4C9FAE4CCFB2275F010EF2F49
:1004EC00FFEE33FEED33FDCC33CCC833C810D70749
:1004FC009BEC9AE899400AED9BFDEC9AFCE899F884
:0E050C000FD5F0DAE4CDFBE4CCFAE4C8F92216
:0E051A00C3E49FFFE49EFEE49DFDE49CFC22F2
:10052800EB9FF5F0EA9E42F0E99D42F0E89C45F029
:0105380022A0
:00000001FF
